:020000040000fa
:080000000002040000000000f2
:020000040000fa
:0400080008040000e8
:020000040000fa
:04000c0008040000e4
:020000040000fa
:0400100008040000e0
:020000040000fa
:0400140008040000dc
:020000040000fa
:0400180008040000d8
:020000040000fa
:04001c0008040000d4
:020000040000fa
:0400200008040000d0
:020000040000fa
:0400240008040000cc
:020000040000fa
:0400280008040000c8
:020000040000fa
:04002c0008040000c4
:020000040000fa
:0400300008040000c0
:020000040000fa
:040034005003000075
:020000040000fa
:0400380008040000b8
:020000040000fa
:04003c0008040000b4
:020000040000fa
:0400400008040000b0
:020000040000fa
:0400440008040000ac
:020000040000fa
:040048004803000069
:020000040000fa
:04004c0008040000a4
:020000040000fa
:0400500008040000a0
:020000040000fa
:04005400c2030000e3
:020000040000fa
:040058001e03000083
:020000040000fa
:04005c00fa020000a4
:020000040000fa
:040060000804000090
:020000040000fa
:04006400080400008c
:020000040000fa
:040068000804000088
:020000040000fa
:04006c000804000084
:020000040000fa
:040070000804000080
:020000040000fa
:04007400080400007c
:020000040000fa
:040078000804000078
:020000040000fa
:04007c000804000074
:020000040000fa
:040080000804000070
:020000040000fa
:04008400080400006c
:020000040000fa
:040088000804000068
:020000040000fa
:04008c000804000064
:020000040000fa
:040090000804000060
:020000040000fa
:04009400aa030000bb
:020000040000fa
:040098000804000058
:020000040000fa
:04009c000804000054
:020000040000fa
:0400a0000804000050
:020000040000fa
:0400a400080400004c
:020000040000fa
:0400a8000804000048
:020000040000fa
:0400ac000804000044
:020000040000fa
:0400b0000804000040
:020000040000fa
:0400b400080400003c
:020000040000fa
:0400b8000804000038
:020000040000fa
:0400bc000804000034
:020000040000fa
:0400c0000804000030
:020000040000fa
:0400c400080400002c
:020000040000fa
:0400c8000804000028
:020000040000fa
:0400cc000804000024
:020000040000fa
:0400d0000804000020
:020000040000fa
:0400d400080400001c
:020000040000fa
:0400d8000804000018
:020000040000fa
:0400dc000804000014
:020000040000fa
:0400e0000804000010
:020000040000fa
:0400e400080400000c
:020000040000fa
:0400e8000804000008
:020000040000fa
:0400ec000804000004
:020000040000fa
:0400f0000804000000
:020000040000fa
:0400f40008040000fc
:020000040000fa
:0400f80008040000f8
:020000040000fa
:0400fc0008040000f4
:020000040000fa
:0401000008040000ef
:020000040000fa
:0401040008040000eb
:020000040000fa
:0401080008040000e7
:020000040000fa
:04010c0008040000e3
:020000040000fa
:0401100008040000df
:020000040000fa
:0401140008040000db
:020000040000fa
:0401180008040000d7
:020000040000fa
:04011c0008040000d3
:020000040000fa
:0401200008040000cf
:020000040000fa
:0401240008040000cb
:020000040000fa
:0401280008040000c7
:020000040000fa
:04012c0008040000c3
:020000040000fa
:0401300008040000bf
:020000040000fa
:0401340008040000bb
:020000040000fa
:0401380008040000b7
:020000040000fa
:04013c0008040000b3
:020000040000fa
:0401400008040000af
:020000040000fa
:0401440008040000ab
:020000040000fa
:0401480008040000a7
:020000040000fa
:04014c0008040000a3
:020000040000fa
:04015000080400009f
:020000040000fa
:04015400080400009b
:020000040000fa
:040158000804000097
:020000040000fa
:04015c000804000093
:020000040000fa
:04016000080400008f
:020000040000fa
:04016400080400008b
:020000040000fa
:040168000804000087
:020000040000fa
:04016c000804000083
:020000040000fa
:04017000080400007f
:020000040000fa
:04017400080400007b
:020000040000fa
:040178000804000077
:020000040000fa
:04017c000804000073
:020000040000fa
:04018000080400006f
:020000040000fa
:04018400080400006b
:020000040000fa
:040188000804000067
:020000040000fa
:04018c000804000063
:020000040000fa
:04019000080400005f
:020000040000fa
:04019400080400005b
:020000040000fa
:040198000804000057
:020000040000fa
:04019c000804000053
:020000040000fa
:0401a000080400004f
:020000040000fa
:0401a400080400004b
:020000040000fa
:0401a8000804000047
:020000040000fa
:0401ac000804000043
:020000040000fa
:0401b000080400003f
:020000040000fa
:0401b400080400003b
:020000040000fa
:0401b8000804000037
:020000040000fa
:0401bc000804000033
:020000040000fa
:0401c000080400002f
:020000040000fa
:0401c400080400002b
:020000040000fa
:0401c8000804000027
:020000040000fa
:0401cc000804000023
:020000040000fa
:0401d000080400001f
:020000040000fa
:0401d400080400001b
:020000040000fa
:0401d8000804000017
:020000040000fa
:0401dc000804000013
:020000040000fa
:0401e000080400000f
:020000040000fa
:0401e400080400000b
:020000040000fa
:0401e8000804000007
:020000040000fa
:0401ec000804000003
:020000040000fa
:0401f00008040000ff
:020000040000fa
:0401f40008040000fb
:020000040000fa
:0401f80008040000f7
:020000040000fa
:0401fc0008040000f3
:020000040000fa
:0402000008040000ee
:020000040000fa
:0402040008040000ea
:020000040000fa
:0402080008040000e6
:020000040000fa
:04020c0008040000e2
:020000040000fa
:0402100008040000de
:020000040000fa
:0402140008040000da
:020000040000fa
:0402180008040000d6
:020000040000fa
:04021c0008040000d2
:020000040000fa
:0402200008040000ce
:020000040000fa
:0402240008040000ca
:020000040000fa
:0402280008040000c6
:020000040000fa
:04022c0008040000c2
:020000040000fa
:0402300008040000be
:020000040000fa
:0402340008040000ba
:020000040000fa
:0402380008040000b6
:020000040000fa
:04023c0008040000b2
:020000040000fa
:0402400008040000ae
:020000040000fa
:0402440008040000aa
:020000040000fa
:0402480008040000a6
:020000040000fa
:04024c0008040000a2
:020000040000fa
:04025000080400009e
:020000040000fa
:04025400080400009a
:020000040000fa
:040258000804000096
:020000040000fa
:04025c000804000092
:020000040000fa
:04026000080400008e
:020000040000fa
:04026400080400008a
:020000040000fa
:040268000804000086
:020000040000fa
:04026c000804000082
:020000040000fa
:04027000080400007e
:020000040000fa
:04027400080400007a
:020000040000fa
:040278000804000076
:020000040000fa
:04027c000804000072
:020000040000fa
:04028000080400006e
:020000040000fa
:10040000ef2521000eff2c000e01880000000000e7
:10041000000020000000e000020032000001200087
:100420002002880014000700fb0007000000e00025
:1004300003003a0020a12100010020000200370043
:100440000000200001002000810f70000100320038
:100450000f000700000020000000e0000200320052
:100460000000020000000000641402000000000010
:100470000040da000000fe00200020000000e00044
:1004800002003200100020009001880000000600e9
:10049000a1028800800478000000eb001f003700f4
:1004a000e284440054a0b4009905ba00e2844400f8
:1004b00054a0b4009906ba00e284440054a0b400e9
:1004c0000006eb00476fde00fd07b200ae018800ba
:1004d000636ce10003003a000ad801000000eb0061
:1004e0000e003700606ce10008003a00004deb00a0
:1004f0000a05e800020039003420ec000af0a000f0
:100500008b05e900f9ff3e00040037006168e10057
:10051000010032000086eb000b00070019c7ba008b
:100520000e04e0001905ba0003003a000a00e000da
:10053000dbff3a0000000600fe07b200ae028800b2
:100540008a047800f5ff37000cd0a300e20f4d00bd
:100550001c00390089027800354dba000a05e80010
:10056000020039003420ec000af0a0008b05e900fd
:100570000f003200254dba000a05e80002003900dc
:100580003420ec000af0a0008b05e90008003200de
:100590000c00e0000600320015cdba000a05e800a4
:1005a000020039003420ec000af0a0008b05e900bd
:1005b0008984e80054a0b4000b00e000e2ff3a0098
:1005c000000006009902ba00055d78008b05e9007d
:1005d000f7ff3200c82ade00055d78008b05e900d0
:1005e000f3ff32000c00e000f1ff320019ddba0029
:1005f000eeff3700801f78000000fa0001a8a90074
:10060000001880009092880010188000a092880046
:1006100020188000b092880030188000c0928800b6
:1006200040188000d092880010c0b30077f0b70067
:100630000080fa004f007800004006003600f80005
:10064000809fbe00829fbe00849fbe00869fbe002a
:100650000000fa000188a9005183800040838000d7
:10066000808f500002003200840a0700010037002a
:100670006c70ef000080fa004f03be004f02be0016
:100680004f01be004f00be003600f90000400600da
:100690000000fa000108a9000080fa0000400600ee
:1006a0003600f800809fbe00829fbe00849fbe007f
:1006b000869fbe000000fa000068a9004d060700f2
:1006c000f6020700ff03070000828000118280000d
:1006d00061004000e08048000082880011828800ac
:1006e000910421009140780010c0b300e3cf500086
:1006f00001003c000040eb008140e80081417800af
:1007000092042100034978000004e0000a0032004e
:100710001607070095040700309080004190800084
:10072000f48f8000059080000001be000400be0030
:10073000990307004970ef000080fa004f03be00e4
:100740004f02be004f01be004f00be003600f90050
:1007500000400600809fbe000000fa00c0818000bb
:10076000d181800061004000e0804800c0818800a5
:10077000d18188000368a9000080fa004f00be0004
:10078000004006003600f800809fbe00829fbe0039
:10079000849fbe00869fbe000000fa000168a90089
:1007a00010118000640060000000e00004003200ce
:1007b0002242a900030037002222a90001003700cd
:1007c0000000000010118000620060000000e000e6
:1007d000f9ff3a0003003700301180000040780034
:1007e0008e0a070010118000610060000000e00028
:1007f000f9ff3a000080fa004f03be004f02be002e
:100800004f01be004f00be003600f9000040060058
:100810000040da000000fe000000050003f0a20026
:10082000889fbe008a9fbe008c1f78006e01070063
:10083000750133006450e1004f0032006420e10094
:100840005200320003826c0007003b000905d00013
:100850000306d000820f54000c065d000200390030
:100860000200320089017800030678008582550075
:1008700004003d000003fd008103fd008502ea0045
:100880008b854200840f720002003b006000100064
:10089000e08018006011b8000005eb007a28e10044
:1008a0000a00390006007800c75ddd00f707b200d6
:1008b000878075002d003700828171000a01780061
:1008c000610560008180d1000080d3008502e900cd
:1008d000f9ff3b00060440008784480002003b000b
:1008e00060041400e0841c000988a30007003200a3
:1008f0008a81710082817100610164008904d100e4
:100900000884d3008b05e800170037000978a3009e
:1009100013003a000b00e000130034008b05e900df
:100920000804440089844c000a4474000978a30038
:100930000d003a000b00e000070034008b05e900d1
:100940000804440089844c0001003a000b00200098
:100950000978a300f7ff32000001eb000200370026
:10096000828171000a017800e40007000cf0a70002
:1009700001f0a0002d0137006420e10002003a00e0
:10098000838f6c002d0133000801be000200be0001
:10099000260137000081eb005f013700889fbe0011
:1009a0008a9fbe008c1f78000f01070016013300dc
:1009b00003866c006450e1002e0032006420e100e8
:1009c000330032006150e1002f0032006120e1006d
:1009d0003100320085855500eb07b000090020008a
:1009e00008042000050037000804440089844c00f6
:1009f0000a0031000603430087834b0000015300c7
:100a000081815b00f8ff33000203be000800a000f4
:100a10000804440089844c00f6ff3900c639dd0023
:100a20008301730001003200130020008904d1000b
:100a30000884d3000998a300050032000800a7002d
:100a40000300a0008904d1000884d3008b05e800ce
:100a50008904d1000884d3000001eb000281d20098
:100a6000a600070001f0a1000cf0a70001f0a00013
:100a7000ee0037006420e100f00032000801be0003
:100a80000200be00f7ff37006120e100eb003200fa
:100a90006000b800f3ff37000000200001f82700d5
:100aa000f0ff37001400200086013700f4ff2f000c
:100ab000840137000001be00b60007000470a700e3
:100ac00003f0a1006509b100160032000d003500e9
:100ad0006828e10006003500f0ff2f00f1ff270035
:100ae0000300e00013003b000100280000000500a7
:100af00000004000818048008502e900fcff3a00c8
:100b000008003700f88f420002003c008000eb0034
:100b1000000005008100d1000080d3008502e800bc
:100b2000fcff3a000300e00002003b006000100000
:100b3000e0801800000006000001be0095000700dc
:100b40000470a70003f0a10003f8a30013003a000b
:100b50006509b10010003200090035006928e10084
:100b600002003500010028000000050000004000e0
:100b7000818048008502e900fcff3a000000060081
:100b8000f88f4200050035008100d1000080d300bd
:100b90008502e800fcff3a00000006008000eb0040
:100ba000000005004f89de008201780060013700f7
:100bb0000400200000003700889fbe008a9fbe000e
:100bc0008c1f78004f26dd00870007008e00330061
:100bd0006120e100430032006250e10041003e002c
:100be0003e0039006420e1003c00320005825500df
:100bf0000f003b000402e80038003a00800f530069
:100c0000818f5b00350034000800be0003f0a100b6
:100c100001f0a60003f0a0000cf0a70000ff070001
:100c2000820037000603430087834b000c464600d2
:100c30000005530081855b00020033000a03be00fb
:100c40000c00a0000402e900f6ff3b0085057800d7
:100c50000602430087824b0004003a006000b8009f
:100c600009f0a70001f0a000700037000002520058
:100c700081825a000704e0000400330006034300a9
:100c800087834b008b05e900faff370009057800e0
:100c90000604be000203be006011b8001700070082
:100ca000e00f5200e08f5a000700350002003c00c0
:100cb0000c08a300040032000601be0003f0a000ef
:100cc0000cf0a700d6fe07000a85680001f0a1001d
:100cd0000af0a70001f0a000540037000800be0091
:100ce00052003700100220000cf0a600d0838800cc
:100cf0005200370004002000f2003700810020007d
:100d0000618055000b003d000b00200061fe2f00ac
:100d10000100e1001d003400828171006101640066
:100d20008904d1000884d3000000e800faff3a00eb
:100d30007100200061006400030070000200600088
:100d40000900320061044400e0844c000988a500d9
:100d5000050032008b05e8006808e10002003a0057
:100d60008904d1000884d300f20f20000258e1006a
:100d700005003d00c75ddd00f907b2008980750000
:100d800008007800000006000bf827008b007800b0
:100d900000000500c70ade00f107b200f50fb2003f
:100da00008003200e1cf4200020032000170a000d2
:100db00024000500810f70000100320004080500c6
:100dc00044000500810f700002003a001400050085
:100dd0008502e9000000400081c04800fcff3b00a4
:100de0000170a000240005000004be00e9ff070018
:100df0000003be000405be000200be00e5ff0700c0
:100e0000844f7500000006000200be006450e1003f
:100e1000050036006420e100020036000968a300e6
:100e200001003a000800be000160a0004f067800f3
:100e30004f05be004f04be0000000600f0ff2f006b
:100e4000f1ff2700f9ff3700889fbe008a9fbe0090
:100e50008c1f7800e4ff0700ebff330003866c0073
:100e60006450e100240032006420e10027003200d9
:100e70006150e100220032006120e10021003200d7
:100e80008b854200eb07b1000134b800003ab8008e
:100e90000804420089844a00013ab8000030b800d2
:100ea0008880400009014a0004003300000040002f
:100eb00081804800020149008b05e900c909dd0075
:100ec000830170000100320013002000c814de000e
:100ed0004814dd004709de001200b200c808de0039
:100ee0000884700085ff070001f0a1000cf0a70046
:100ef00001f0a000cdff37006120e100cfff3200fc
:100f00000801be000200be00f7ff37006150e1009b
:100f1000fcff3a00c9ff3700889fbe008a9fbe00d1
:100f20008c9fbe00820578000004be0099ff070078
:100f30000800be006420e1000700390002003a000a
:100f4000f1ff2700f0ff2f000160a0001202200037
:100f5000d2838800550037006120e10003003a0089
:100f60000b00a70001f823005000370001f0a1009a
:100f70000200210093642400cafe07000800be009e
:100f800004003500b2fd2000930c240008ff070088
:100f90000004be000005eb000b00a6004f0dde00b4
:100fa00001f0a1000004be0032982f0023ea2300c4
:100fb000a5ff07000001eb0003f023000b00a700d2
:100fc00003f8230016fe0700bafe07000000a70082
:100fd0000a00a200f3fe07000b00e000030032004d
:100fe0000200200003f023000cfe070001f0a20025
:100ff0000006be00020020009304240092ff0700b8
:101000000801be0006fe0700809fbe000c00be0067
:1010100022a22a00d3a723008bff07004f01be00a6
:10102000fffd07000004be0001f0a1000200200047
:10103000039823009bfe07000800be00190035003e
:101040000001be0080ff07000006be00b2c52900f7
:10105000e36223007cff070022222b00f3942b0085
:10106000effd07000c01be0077ff0700e2732800c8
:1010700083c02300eafd07000c01be0072ff0700d9
:1010800042aa2a00a3e22b00e5fd07000c01be00e6
:101090006dff07000801be006bff07000801be00de
:1010a000dffd07000a00a70001f0a2004f06be0006
:1010b0004f05be004f04be00000006000001eb001b
:1010c00095ff3700889fbe008a9fbe00841f78006e
:1010d00045ff07004f00780011003300f0ff2f009c
:1010e000838f6c0006003b00040565000a00a70022
:1010f0000800370009f0a6001000200008003700a3
:10110000820f5400838f5c00030039001000200020
:1011100001003e000000200009f0a7000000ea00e6
:101120004f05be004f04be000000e00000000600b6
:10113000881f7800030478000300e00007003d00ea
:1011400060001000e080180060011900e0811900c3
:1011500002003b0001f02d000300370004000700ef
:1011600008f0a70001f0a0004f047800000006007e
:10117000889fbe008a9fbe0000827000040271003a
:1011800004827100260032000004be000200be008e
:101190006011b8006b092000950220000182cf0089
:1011a0000a0039000541b1000082cf000700390074
:1011b0000541b1000982cf00040039000541b100aa
:1011c0000882cf00010039000541b10005425200fc
:1011d000120032000a003b0082817100610164004c
:1011e0008100d1000080d3008984d3000884d3001b
:1011f0008b05e8000442e800f7ff3a0007003700db
:101200000804440089844c000000480081804800a4
:101210008b05e9000442e900f9ff3a00b7fe070038
:0c1220004f05be004f04be000000060099
:020000040000fa
:10122c000000fa001160800080ff2f000080600039
:10123c001060880000fa20002060880023aca80011
:10124c00238ca80011618000f03f2f00008060000b
:10125c0000a0a000106188003000200020618800f0
:10126c00c3aca800c38ca80011668000f03f2f000f
:10127c000080600000a0a0001066880030002000f4
:10128c002066880001eca8000080fa00000006002f
:10129c000000fa00889fbe008a9fbe005490800018
:1012ac0065908000309080004190800018c0b300a1
:1012bc000001be000400be00f7fd07000000e000c6
:1012cc00010035000044eb000804e0000f00320080
:1012dc0038908000499080005a9080006b9080007c
:1012ec004ed0bf000080fb00cf80de002afe07003e
:1012fc000001be000a00be0046fd07000801be004a
:10130c00f10607005090880061908800549080008e
:10131c0065908000309080004190800018c0b30030
:10132c000001be000400be00ddfd07000000e0006f
:10133c0001003c000044eb000804e0000f00320008
:10134c0038908000499080005a9080006b9080000b
:10135c004ed0bf000080fb00cf80de000efe0700e9
:10136c000001be000a00be0029fd07000801be00f6
:10137c00bd06070050908800619088005090800056
:10138c006190800018c0b3006011b800c4fd070064
:10139c000000e00001003c000044eb000804e00009
:1013ac0004003200c3eca90024cea800c3cca800d2
:1013bc0003003700c3cca90024eea800c3eca8009e
:1013cc005090800061908000910607000200200080
:1013dc000322240099fe0700d4fd070000007800ca
:1013ec00306688001490800025908000f08f80007b
:1013fc000190800018c0b3000001be000400be00c4
:10140c00a5fd07000000e000010035000044eb00e2
:10141c000804e0000f003200f88f80000990800073
:10142c001a9080002b9080004ed0bf000080fb00f3
:10143c00cf80de00d8fd07000001be000a00be0010
:10144c00f4fc07000801be009f06070010908800fe
:10145c00219088001490800025908000f08f8000ef
:10146c000190800018c0b3000001be000400be0053
:10147c008bfd07000000e00001003c000044eb0085
:10148c000804e0000f003200f88f80000990800003
:10149c001a9080002b9080004ed0bf000080fb0083
:1014ac00cf80de00bcfd07000001be000a00be00bc
:1014bc00d7fc07000801be006b06070010908800df
:1014cc0021908800109080002190800018c0b300fb
:1014dc006011b80072fd07000000e00001003c0044
:1014ec000044eb000804e0000400320023cca90007
:1014fc0015eea80023eca8000300370023eca9008c
:10150c0015cea80023cca80010908000219080005c
:10151c003f060700020020000322240047fe0700bc
:10152c0082fd070000007800306188004f05be0086
:10153c004f04be000080fa00000006000600fa000e
:10154c00008fbe00424798004e4090000004e0001f
:10155c0005003a001e0178009e0190003290880030
:10156c0043908800070037004e409000e14f500038
:10157c0004003a001e0178009e019000f28f880052
:10158c00039088000080fa00000006000800fa00b2
:10159c00008fbe0022079800330798001e007800c9
:1015ac009e00900061fd070080407800c02521005e
:1015bc00014878002e009000be0090005bfd0700f3
:1015cc0080407800d025210001487800c2252100f8
:1015dc0021002000000420001a0107000080fa00fe
:1015ec00000006000000fa00a0828000b18280009a
:1015fc006011b800bcfd07000000e00010003200d4
:10160c00c4828000d582800080828000918280001c
:10161c000001be000400be0008fe07000002be0070
:10162c00a0828000b18280000001be000400be00d8
:10163c00d7fc070020818800318188000300370027
:10164c006000b80020818800318188008081800092
:10165c00918180006011b800a3fd07000000e0003c
:10166c0010003200e4828000f582800060818000ee
:10167c00718180000001be000400be00effd070078
:10168c000002be0080818000918180000001be00bc
:10169c000400be00befc0700a0818800b181880058
:1016ac00030037006000b800a0818800b181880079
:1016bc000080fa00000006002800fa006000b80064
:1016cc0050928800619288006000b8007092880087
:1016dc008192880054928000659280007091800005
:1016ec00819180000001be000400be0048fc070090
:1016fc00008fbe0002002000a33724001e007800db
:10170c009e009000a2fc07000002be000081800039
:10171c00118180000001be000400be003dfc0700ea
:10172c000081880011818800228180003381800033
:10173c00208180003181800001f0a20006818000b0
:10174c00178180000202be000001be000600be0030
:10175c006b05070000818800118188008082800061
:10176c00918280001e0178009e019000b3fd07005d
:10177c002007980031079800a4828000b582800071
:10178c0000818000118180000001be000400be00b9
:10179c00aafd070040079800510798004e019000e1
:1017ac00de0190002e009000be00900019fc070096
:1017bc006007980071079800323323003309240026
:1017cc006e009000fe0090009cfd0700000f98003a
:1017dc00110f9800749280008592800050918000c7
:1017ec00619180000001be000400be0008fc0700ef
:1017fc00200f9800310f980002002000a33724001e
:10180c002e089000be08900061fc07000002be008c
:10181c0040818000518180000001be000400be00a8
:10182c00fcfb07004081880051818800a281800068
:10183c00b3818000a0818000b181800001f0a20002
:10184c0046818000578180000202be000001be006c
:10185c000600be002a0507004081880051818800df
:10186c0060818000718180002e099000be0990007b
:10187c0072fd0700400f9800510f98008481800082
:10188c009581800040818000518180000001be0064
:10189c000400be0069fd0700600f9800710f9800ee
:1018ac006e099000fe0990004e089000de08900032
:1018bc00d8fb0700001798001117980002002000b1
:1018cc00c32024000e1090009e1090005bfd0700ba
:1018dc0020179800311798000e0990009e0990006f
:1018ec002e109000be109000cafb070030908800ac
:1018fc0041908800309080004190800004002000ce
:10190c00852c240002002000832c2c00fc040700f2
:10191c0030908800419088000e0990009e0990003c
:10192c002e109000be109000b9fb0700f08f8800bd
:10193c0001908800f08f800001908000040020004e
:10194c00852c240002002000832c2c00ec040700c2
:10195c00f08f8800019088000080fa0000000600db
:10196c000800fa0050928000619280000001be00d5
:10197c008000eb000e007800950407007092800048
:10198c00819280000001be00410020000e00780012
:10199c008f0407000e017800810020002006200033
:1019ac00280007000080fa00000006000a00fa0078
:1019bc00200798003107980042079800e0cfb30049
:1019cc00004f78002e009000004078001e4f6800f9
:1019dc002e0090004880de00004078001e4f68000a
:1019ec003e009000004078001e4f68003e009000c2
:1019fc004880de00004078001e4f68000000eb00bd
:101a0c0010079800080037001e009000ce009000d0
:101a1c0000804000104078001e4f68001e009000af
:101a2c000000e800100798009e0090003e00900017
:101a3c00808f5000f4ff35001e4078000080fa00c3
:101a4c00000006000e00fa00889fbe0040079800b8
:101a5c0051079800620798000f0478000f00780077
:101a6c00800478005e009000660040008000e90071
:101a7c00210798000000e8000000e8000000d100f9
:101a8c00800040000f007800818747000000e800cc
:101a9c000000d10000004000300798000000eb006f
:101aac00000f78003e0090001e004000e1cfb30014
:101abc00014878001e0fe8004e0090004880de00c0
:101acc00804078003e0090001e00400001487800e5
:101adc001e0fe8004e009000804078003e00900001
:101aec001e004000014878001e0fe8005e009000c8
:101afc004880de00804078003e0090001e004000d0
:101b0c00014878001e0fe8005e00900080407800cd
:101b1c003e0090001e004000014878001e0fe800b7
:101b2c000000eb00100798000b0037001e0090001f
:101b3c00ee00900000804000904078003e00900045
:101b4c001e004000014878001e0fe8001e009000a7
:101b5c000000e800100798009e0090005e009000c6
:101b6c00808f5000f1ff35006e019000de00900078
:101b7c004e0090008dff0700be0090009e8040003c
:101b8c00804878001e0fe8003e0090009e00780010
:101b9c00fd04070089077800880778004f04be0011
:101bac000080fa00000006000400fa0020479800ac
:101bbc0066d0bf000080fb00e30f50002500320010
:101bcc00e30f500007003c00e10f50001200320000
:101bdc00e10f500017003c000000e000080032004c
:101bec005f003700e50f500029003200e50f500070
:101bfc001f003500e60f500042003200580037003d
:101c0c002e409000e24f400052003a0010c0b3004a
:101c1c0066f0b700520037002e4090000080fb00a9
:101c2c004800dd000083880020c0b30066f0b700d8
:101c3c004b0037002e4090008080fb00008380001a
:101c4c00008040000083880030c0b30066f0b7000d
:101c5c00430037002e4090000080fb004800dd0060
:101c6c001083880040c0b30066f0b7003c0037001a
:101c7c002e4090008080fb0010838000008040008c
:101c8c001083880050c0b30066f0b70034003700f2
:101c9c0011838000f0072000808f50000400340076
:101cac006030ef006230ef006670ef002c00370000
:101cbc00108380000000e0000f00340020838000bf
:101ccc00c1172100808040002e419000824878008e
:101cdc000000e800208388002183800010838000ae
:101cec00808f50001d0035006430ef0060c0b300e1
:101cfc0066f0b7001a00370060c0b30066f0b7009a
:101d0c00170037001183800000838000c217210068
:101d1c0026ff0700004f7800ae4090001147980056
:101d2c001e4090009e40780080cf500006003a0084
:101d3c001083800080407800008380000040780091
:101d4c00c2172100080007006670ef0000000000b9
:101d5c000300370000000000010037000000000005
:101d6c000080fa00000006000400fa00004f780022
:101d7c0011479800120798001e80fb0021052000d7
:101d8c00810f50001500320021052000810f5000fa
:101d9c0007003c0001022000810f5000430032007c
:101dac0011052000810f5000080032007a00370026
:101dbc0031052000810f50000c003200310620004c
:101dcc00810f500067003200730037001e00900036
:101ddc00104078001f0307006f0037001e009000b2
:101dec0010407800230307006b0037001e009000a2
:101dfc00104078000004e0000a003d001e00900036
:101e0c00104078000080fb000070a1000000ea0088
:101e1c00cf80de0060fb0700f08f88000190880007
:101e2c00080037001e009000104078000080fb0076
:101e3c000070a100cf80de0057fb0700f08f8800f8
:101e4c00019088001e0090000000e800104078000f
:101e5c000004e0000b003d001e0090000000e800b4
:101e6c00104078000080fb000070a1000000ea0028
:101e7c00cf80de0048fb070030908800419088003e
:101e8c00450037001e0090000000e800104078006c
:101e9c000080fb000070a100cf80de003efb07003d
:101eac0030908800419088003b0037001e00900065
:101ebc00104078000080fb00e10f50001000320051
:101ecc00e20f50001a0032000000e00031003a002e
:101edc001e0090000000e800104078006140600097
:101eec000080fb00610060004a00dd002171800071
:101efc0001a0a100010070002071880018003700bb
:101f0c001e0090000000e800104078006140600066
:101f1c000080fb00610060004600dd002173800042
:101f2c000160a10001007000207388000c003700d4
:101f3c001e0090000000e800104078006140600036
:101f4c000080fb00610060004700dd002173800011
:101f5c000170a100010070002073880000000000d7
:101f6c000d0037008000eb001e0090000d030700f1
:101f7c005092880061928800410020001e00900061
:101f8c00080307007092880081928800000000000e
:101f9c0001003700000000000080fa00000006007d
:101fac000000fa00c301a8000080eb00e00e8800de
:101fbc000080eb00f00e8800c1e1a8000080fa0060
:101fcc00000006000000fa00c305a8000080eb002a
:101fdc00e02e88000080eb00f02e8800c1e5a80000
:101fec000080fa00000006000800fa00889fbe007e
:101ffc002080800031808000008088001180880063
:10200c006080800071808000408088005180880052
:10201c00300e80008000eb00008fbe00500e800060
:10202c008000eb00c000dd00000020001e0f40000f
:10203c005e974800302e80008000eb00200798004f
:10204c0031079800502e80008000eb00c000dd00ae
:10205c00000020002e019000be0190000200400004
:10206c008380480020079800310798001e007800f4
:10207c009e009000c8fa0700d25d2b0043c82300d5
:10208c006efb070002002000a347240040fa070063
:10209c0020808800318088002e009000be009000c7
:1020ac00bdfa0700d25d2b0043c82b0063fb070071
:1020bc0002002000a347240035fa07006080880046
:1020cc007180880024808000358080000080800032
:1020dc00118080000001be000400be00ccf9070096
:1020ec0080808800918088006480800075808000ea
:1020fc0040808000518080000001be000400be00c2
:10210c00c3f90700a0808800b1808800848080001b
:10211c0095808000a0808000b18080000001be000e
:10212c000400be00baf9070042b62300f3e5230011
:10213c0017fa0700e0808800f18088008480800016
:10214c0095808000a0808000b18080000001be00de
:10215c000400be00aff907000200200003002400b9
:10216c000bfa0700c0808800d18088008080800036
:10217c009180800002002000a33724002ffb070071
:10218c001091880021918800a0808000b18080008f
:10219c0002002000a337240028fb070030918800a0
:1021ac00419188001491800025918000309180002d
:1021bc00419180000001be000400be0095f90700ab
:1021cc000200200003002400f1f907005091880060
:1021dc0061918800e0808000f18080000200200086
:1021ec00a337240015fb07007091880081918800ab
:1021fc00d0918000e191800090918800a19188009d
:10220c00f091800001928000b0918800c19188000b
:10221c0030928000419280001092880021928800b8
:10222c00d8918000e991800010928000219280006a
:10223c00d5f907000002be00c0808000d18080006c
:10224c000001be000400be00fcfa07000001be0045
:10225c000800be006ff90700d0918800e19188005a
:10226c00f8918000099280001092800021928000e9
:10227c008ffb07000002be00c0808000d180800070
:10228c000001be000400be00ecfa07000001be0015
:10229c000800be005ff90700f091880001928800e9
:1022ac003492800045928000e0808000f1808000b4
:1022bc000001be000400be0056f9070030928800f1
:1022cc0041928800309280004192800018c0b30087
:1022dc00b2fd200093042400f1f907000000e00097
:1022ec0001003c000044eb000804e0000700320051
:1022fc003092800041928000b2fd2000930c2400ab
:10230c0043f9070030928800419288003092800097
:10231c004192800018c0b300b2fd200093042c0041
:10232c00ddf907000000e000010035000044eb007f
:10233c000804e000070032003092800041928000d7
:10234c00b2fd2000930c240032f907003092880073
:10235c00419288004f04be000080fa000000060085
:10236c001800fa00c0818000d18180000001be00fd
:10237c008000eb000e0078002e020700d091800048
:10238c00e19180000001be00410020000e007800a9
:10239c000f020700f0918000019280000001be0046
:1023ac00810020000e0078000902070030928000a6
:1023bc00419280000001be00c10020000e00780098
:1023cc000302070050918000619180000001be0063
:1023dc00010120000e007800fd01070070918000c3
:1023ec00819180000001be00410120000e007800a8
:1023fc00f70107000e017800810120001006200073
:10240c0090fd070021738000000420000080600014
:10241c0000f0a7000000ea000000e9004f00de0019
:10242c00004078000080fb00610060004600dd0089
:10243c00217380000160a1000100700020738800ee
:10244c000080fa00000006000000fa0013e1a90069
:10245c0011e1a9001061a8001021a90010c1a90068
:10246c0081088000f0fc2f00008060000040a0007c
:10247c00800888000a21ef000621ef008009200067
:10248c007008880000a025006008880021428000a8
:10249c0080ff2f00008060000000a0002042880018
:1024ac000108a9002108a80011e1a8000080fa0089
:1024bc00000006000000fa0000002000a1372400f4
:1024cc000900070005e1a90005a1a90004c1a900a4
:1024dc000421a9000068a9002068a80005e1a80053
:1024ec000080fa00000006000400fa00881f780043
:1024fc00008fbe0021088000f0fc2f0000806000df
:10250c00200888001e0178009e01900000682900b8
:10251c0081c124001ef9070018c0b30002f02f007f
:10252c00f37724005ef907000000e00001003c0096
:10253c000044eb000804e000540032002108800045
:10254c00f0fc2f00008060000040a00020088800f4
:10255c001e0178009e0190000068290081c12400b2
:10256c000bf90700020020000310240008f90700f3
:10257c0018c0b30002f02f00f377240048f90700cd
:10258c000000e00001003c000044eb000804e00007
:10259c003200320021088000f0fc2f000080600027
:1025ac000050a000200888001e0178009e019000b9
:1025bc000068290081c12400f5f807000200200002
:1025cc0003282400f2f8070018c0b30002f02f0013
:1025dc00f377240032f907000000e00001003c0012
:1025ec000044eb000804e0001000320021088000d9
:1025fc000003200001007000200888001e017800f4
:10260c009e0190000068290081c12400e0f80700b9
:10261c000200200003382400ddf8070022f907002f
:10262c000000780010088800200037001e01780098
:10263c009e0190000068290081c12400d4f8070095
:10264c000200200003282400d1f8070016f9070027
:10265c000000780010088800140037001e01780074
:10266c009e0190000068290081c12400c8f8070071
:10267c000200200003102400c5f807000af9070027
:10268c000000780010088800080037001e01780050
:10269c009e0190000068290081c12400bcf807004d
:1026ac0001f9070000007800100888004f0478003a
:1026bc000080fa00000006000000fa000000200074
:1026cc00a1472400090007001fe1a9001fa1a900d0
:1026dc001ec1a9001e21a9000368a9002368a80037
:1026ec001fe1a8000080fa00000006000400fa00b8
:1026fc00881f7800008fbe00f1088000f0fc2f00ce
:10270c0000806000f00888001e0178009e01900097
:10271c000068290081c124009df8070018c0b3008f
:10272c0002f02f00f3772400ddf807000000e00032
:10273c0001003c000044eb000804e00054003200af
:10274c00f1088000f0fc2f00008060000040a00029
:10275c00f00888001e0178009e0190000068290096
:10276c0081c124008af80700020020000310240015
:10277c0087f8070018c0b30002f02f00f37724008d
:10278c00c7f807000000e00001003c000044eb002b
:10279c000804e00032003200f1088000f0fc2f0049
:1027ac00008060000050a000f00888001e01780036
:1027bc009e0190000068290081c1240074f8070074
:1027cc00020020000328240071f8070018c0b30091
:1027dc0002f02f00f3772400b1f807000000e000ae
:1027ec0001003c000044eb000804e0001000320043
:1027fc00f10880000003200001007000f008880040
:10280c001e0178009e0190000068290081c12400ff
:10281c005ff8070002002000033824005cf8070072
:10282c00a1f8070000007800d008880020003700cd
:10283c001e0178009e0190000068290081c12400cf
:10284c0053f80700020020000328240050f807006a
:10285c0095f8070000007800d008880014003700b5
:10286c001e0178009e0190000068290081c124009f
:10287c0047f80700020020000310240044f807006a
:10288c0089f8070000007800d0088800080037009d
:10289c001e0178009e0190000068290081c124006f
:1028ac003bf8070080f8070000007800d00888008b
:1028bc004f0478000080fa00000006000400fa00c3
:1028cc00440307000f030700dffe0700f9fe0700b3
:1028dc0079ff070052fa070042fb070002020700cb
:1028ec008e020700aefd0700b6fd07000000eb00ee
:1028fc00000f7800050037005702070020479800aa
:10290c002e409000a8fc07001e0fe8007c02070078
:10291c009e0f5000f8ff3c00f4ff37000800fa004f
:10292c001172800000002100008060000000e000b7
:10293c001d0032006ed0bf000004e0000e003a0013
:10294c0010c0b3006ef0b7006ed0bf00004f78001f
:10295c0050c0b30010479800a0c0b30020479800a7
:10296c0040c1b300304798000e01780041002000b0
:10297c000001200033fc070078d0bf000004e00009
:10298c0032003a00f08f80000190800012c0b3003a
:10299c00eafa070030908000419080000041eb0083
:1029ac00e6fa0700290037006ed0bf00e14f500057
:1029bc000e003a006e70ef006ed0bf0040479800da
:1029cc0050c0b30050479800a0c0b30060479800b7
:1029dc0040c1b300704798006400470000017800c4
:1029ec00410020000001200016fc07003830ef00e9
:1029fc003a30ef006f70ef006000b8003090880044
:102a0c00419088006000b800f08f88000190880029
:102a1c006000b80050928800619288006000b80095
:102a2c0070928800819288006000b800d091880074
:102a3c00e19188006000b800f09188000192880054
:102a4c006000b80030928800419288000080fa0043
:102a5c00000006000200fa00004f78001e417800ca
:102a6c00f106210082487800acff07000080fa00d4
:102a7c00000006000200fa00004f78001e407800ab
:102a8c00e14f500003003a0010c0b30078f0b700db
:102a9c00040037001e4078000004e00001003a00fa
:102aac007870ef000080fa00000006000800fa00c1
:102abc00300798003e009000e10f50000b003a00e8
:102acc00207380004600de006140600011c0b3003e
:102adc00014f7800104798000e017800210020006b
:102aec0000022000d7fb07001d0037003e009000bd
:102afc000000e0000c003a00207180004a00de006b
:102b0c00614060008040eb002147980030479800fe
:102b1c000e80e80000017800210020000002200057
:102b2c00c8fb07000e0037003e009000e20f50007b
:102b3c000b003a00207380004700de00614060000b
:102b4c0021c0b300414798005047980064004700eb
:102b5c00000178002100200000022000b9fb0700d2
:102b6c000080fa00000006000a00fa003007980006
:102b7c0041079800be0090004e009000008f40006e
:102b8c001e00780010017800900190001207980048
:102b9c00230798001e009000ae0090000080fa0001
:102bac00000006000600fa001007980021079800a4
:102bbc009e0090002e009000008f40001e007800b8
:102bcc0090009000100078000080fa0000000600d1
:102bdc000c00fa0020079800310798004207980073
:102bec005307980068004700100798000000eb009e
:102bfc00000f78000a0037003e0090001e004000d5
:102c0c00ae009000008040009e0078001e019000f5
:102c1c008100410091407800014878001e0fe800c7
:102c2c001e007800e30f5000f3ff34000080fa0020
:102c3c00000006000c00fa002007980031079800ed
:102c4c004207980053079800680047001007980047
:102c5c000000eb00000f78000b0037003e009000e6
:102c6c001e004000ae0090000080400032002000aa
:102c7c009e0051001e01900081004100914078009f
:102c8c00014878001e0fe8001e007800e30f50008a
:102c9c00f2ff34000080fa00000006000c00fa007d
:102cac0020079800310798004207980053079800b6
:102cbc0068004700100798000000eb00000f780038
:102ccc000a0037003e0090001e004000ae0090004d
:102cdc00008040009e0078001e01900081004100a1
:102cec0091407800014878001e0fe8001e00780023
:102cfc00e70f5000f3ff34000080fa0000000600dc
:102d0c000c00fa00881f7800008fbe002207980084
:102d1c0033079800440798005507980018c0b30073
:102d2c002e019000be0190001e0078009e009000c5
:102d3c0059f707000000e000010035000044eb00eb
:102d4c000804e000030032002e009000be0090004a
:102d5c001000370018c0b3004e019000de01900047
:102d6c001e0078009e0090004df707000000e00068
:102d7c0001003c000044eb000804e00003003200ba
:102d8c004e009000de009000020037001e0078001c
:102d9c009e0090004f0478000080fa0000000600ae
:102dac000800fa002007980031079800b2fd2000b7
:102dbc00930424002e009000be00900094f60700af
:102dcc00b2fd2000930c240076f70700b2fd200022
:102ddc00930424008ff60700008fbe00b2fd200084
:102dec00930424001e0078009e00900089f60700d2
:102dfc00b2fd2000930c24006af70700b2fd2000fe
:102e0c009304240082f607000080fa0000000600fc
:102e1c000400fa00881f7800008fbe0018c0b300b1
:102e2c006011b8001e0078009e0090001cf707008f
:102e3c000000e00001003d000044eb000804e0004d
:102e4c00030032001e0078009e0090000300370043
:102e5c001e0078009e00900001f0a2004f04780044
:102e6c000080fa00000006000800fa00881f7800b5
:102e7c00008fbe00220798003307980018c0b300db
:102e8c002e019000be0190001e0078009e00900064
:102e9c0003f707000000e00001003c000044eb00d9
:102eac000804e000030032001e0078009e00900031
:102ebc00020037002e009000be0090004f047800f6
:102ecc000080fa00000006000800fa00881f780055
:102edc00008fbe00220798003307980018c0b3007b
:102eec002e019000be0190001e0078009e00900004
:102efc00e9f607000000e000010035000044eb009b
:102f0c000804e000030032001e0078009e009000d0
:102f1c00020037002e009000be0090004f04780095
:102f2c000080fa00000006000400fa00008fbe00ca
:102f3c00b2fd2000930424001e0078009e00900037
:102f4c0093f607000200200043332400bbf7070070
:102f5c000080fa00000006000400fa00008fbe009a
:102f6c00b2fd2000930424001e0078009e00900007
:102f7c00b2f70700020020004333240084f6070058
:102f8c000080fa00000006000600fa001007980006
:102f9c00210798000040eb00004f7800410007002b
:102fac00ae009000810f5000110034000040eb0087
:102fbc00004f7800060037001e80fb009e0090003a
:102fcc0000804000104078000b0007001e4fe80006
:102fdc009e80fb002e009000808f5000f6ff350085
:102fec002c0007000004e00001003a00200007005c
:102ffc000080fa00000006000200fa00004f780082
:10300c0040838000c1072100808040009e487800ea
:10301c000000e8004083880041838000f007200016
:10302c00808f5000010034006830ef000080fa00ff
:10303c00000006000200fa0050838000c107210046
:10304c0080804000114f78000000e8005083880019
:10305c0051838000f0072000808f50000100340065
:10306c006a30ef001e4078000080fa000000060075
:10307c000200fa0010c0b3006cf0b700edff0700bf
:10308c00004f78001e80fb00201188000080fa00a1
:10309c00000006000000fa006cd0bf000080fa00af
:1030ac00000006000200fa0041838000508380007b
:1030bc00808f5000040034004183800050838000d6
:1030cc00008f500005003700418380005083800042
:1030dc000080500001082000010f40001e00780005
:1030ec000080fa00000006000000fa0021e3a900ad
:1030fc002143a80001198000f0cf2f000080600050
:10310c00001988002043a90001198000000e20003e
:10311c00010070000019880011198000f0ff2100d7
:10312c0000806000101988002343a800111980004a
:10313c00f0cf2f000080600010198800111980005a
:10314c0030f82f00008060000040a00010198800ab
:10315c002203a9002223a90025e3a900f0c0b30093
:10316c0024e3b70021198000f00f2e00808060004e
:10317c0000f0200001007000201988003303a90022
:10318c001e0ea8002e0ea8002f6ea8004fcea80071
:10319c006f2ea8003043a80030c3a8003163a800ec
:1031ac0031c3a8002e03a8004119800000fc2f0099
:1031bc00008060004019880028e3a90001a8a9003c
:1031cc0021a8a80021e3a8000080fa000000060056
:1031dc000000fa002023a8000080fa00000006007e
:1031ec000000fa00202521000080fa0000000600f3
:1031fc000000fa0077d0bf000080fa000000060043
:10320c000000fa007770ef000080fa000000060062
:10321c000200fa00004f7800280007000000e000d0
:10322c000b00340090838000c10f2100808040008f
:10323c009e4878000000e80090838800918380000d
:10324c00f0072000808f5000010034007230ef0036
:10325c000080fa00000006000200fa00a083800043
:10326c00c10f210080804000114f78000000e80061
:10327c00a0838800a1838000f0072000808f50007d
:10328c00010034007430ef001e4078000080fa001a
:10329c00000006000000fa0091838000a0838000eb
:1032ac00808f50000200320010c0b30001003700c4
:1032bc000040eb000080fa00000006000200fa005b
:1032cc0091838000a0838000808f50000400340024
:1032dc0091838000a0838000008f50000500370090
:1032ec0091838000a08380000080500001082000a2
:1032fc00010f40001e0078000080fa00000006005c
:10330c000200fa00edff070001082000008f5000ba
:10331c001e0078000080fa00000006000000fa0091
:10332c002002a9000111800090ff2f000080600096
:10333c000011880020a2a9002062a80050052000de
:10334c004011880023a2a90023e2a9000188a9004a
:10335c002188a80011118000f0f32f00008060007c
:10336c00101188000168a9002168a80021e2a800ba
:10337c002342a8003142800080ff2f0000806000b3
:10338c005000b3003042880021428000f0ff28003a
:10339c008080600000002600010070002042880040
:1033ac000080fa00000006000600fa0010079800e2
:1033bc00210798000040eb00004f78000040eb0024
:1033cc00004f78000e003700000000001111800043
:1033dc0000202000008060000000e000fbff3a00ad
:1033ec001e009000104078000080fb002011880027
:1033fc001e0090000000e800100798001e4fe80027
:10340c009e80fb002e009000808f5000eeff350058
:08341c000080fa000000060028
:020000040000fa
:10342400521200000a000000800000007610000024
:1034340002000000800000007c10000080000000fa
:1034440080000000681000000600000080000000fa
:103454005c12000002000000800000004e1000001a
:1034640012000000820000000400660066e63f00cf
:103474000000910042db0f00c940000000a04000a2
:10348400201000001800000080000000fc11000063
:1034940056000000800000007810000002000000c8
:1034a40082000000010000006e1000000400000013
:1034b40080000000381000001600000080000000aa
:1034c400fc1000008000000080000000721000006a
:1034d40004000000800000007c1100008000000057
:1034e4008000000060100000080000008000000060
:1034f4000010000020000000800000007a1000008e
:0c35040002000000800000000000000039
:020000040000fa
:103510000000fa000e2eef001e2eef002e2eef0000
:103520003e2eef004e2eef005e2eef006e2eef00cf
:10353000214ea90060cea90060eea90011eea900fd
:1035400011cea90020eea90020cea900418ea8002e
:103550002136800000f82f00008060008001b30059
:10356000203688001134800000fc2f0000806000ad
:103570000000a000103488000136800000f82f0001
:103580008080600010062000010070000036880076
:1035900001368000f00f28008080600000002600c7
:1035a0000100700000368800e135800000f82f002f
:1035b000808060006004200001007000e035880019
:1035c000e1358000f00f280080806000005024006a
:1035d00001007000e03588000080fa00000006005d
:1035e0000000fa00f0032000303a8800213a800001
:1035f000f0f32f0000806000203a8800213a80001c
:1036000000fe2f00008060000000a000203a88002b
:103610001200200080072000a10920003374200040
:10362000804978008149780082497800103a80000a
:10363000000178000200a000600420007105200055
:1036400023742000804978008149780082497800fd
:1036500000000000113a8000000027008080600018
:1036600000002100808f5000faff3a0000000000a7
:10367000113a800000022000008060000000e0009d
:0c368000fbff32000080fa000000060092
:020000040000fa
:02000004000af0
:04afe000cfff00009f
:020000040000fa
:02000004000af0
:04afe400ffff00006b
:020000040000fa
:02000004000af0
:04afe800ffff000067
:020000040000fa
:02000004000af0
:04afec005fff000003
:020000040000fa
:02000004000af0
:04aff00038ff000026
:020000040000fa
:02000004000af0
:04aff400ffff00005b
:00000001FF
